:100000000C942A000C943C000C943C000C943C0092
:100010000C943C000C943C000C943C000C943C0070
:100020000C943C000C943C000C948A010C94B1019B
:100030000C943C000C943C000C943C000C943C0050
:100040000C943C000C943C000C943C000C943C0040
:100050000C943C0011241FBECFE5D8E0DEBFCDBF1D
:1000600020E0A0E6B0E001C01D92A636B207E1F79D
:100070000E944A010C94DC010C940000843008F0CA
:1000800072C0683008F06FC04130A1F5813089F04E
:1000900028F08230C9F0833011F108952AB381E04D
:1000A00090E002C0880F991F6A95E2F7822B8ABB05
:1000B000089527B381E090E002C0880F991F6A95E8
:1000C000E2F7822B87BB089524B381E090E002C061
:1000D000880F991F6A95E2F7822B84BB089521B39C
:1000E00081E090E002C0880F991F6A95E2F7822BA9
:1000F00081BB0895411137C0813091F028F08230E2
:10010000D9F0833029F108952AB381E090E002C04C
:10011000880F991F6A95E2F7809582238ABB08951C
:1001200027B381E090E002C0880F991F6A95E2F73B
:100130008095822387BB089524B381E090E002C0BC
:10014000880F991F6A95E2F78095822384BB0895F2
:1001500021B381E090E002C0880F991F6A95E2F711
:100160008095822381BB0895843008F072C0683086
:1001700008F06FC04130A1F5813089F028F082305D
:10018000C9F0833011F108952BB381E090E002C0F3
:10019000880F991F6A95E2F7822B8BBB089528B3CD
:1001A00081E090E002C0880F991F6A95E2F7822BE8
:1001B00088BB089525B381E090E002C0880F991FA5
:1001C0006A95E2F7822B85BB089522B381E090E027
:1001D00002C0880F991F6A95E2F7822B82BB0895AF
:1001E000411137C0813091F028F08230D9F083304E
:1001F00029F108952BB381E090E002C0880F991F88
:100200006A95E2F7809582238BBB089528B381E03D
:1002100090E002C0880F991F6A95E2F780958223CB
:1002200088BB089525B381E090E002C0880F991F34
:100230006A95E2F78095822385BB089522B381E019
:1002400090E002C0880F991F6A95E2F7809582239B
:1002500082BB0895809161008E34B1F4809160007A
:10026000811109C041E067E082E00E94B40081E0B2
:100270008093600007C040E067E082E00E94B40025
:100280001092600010926100809161008F5F8093F6
:10029000610008958AE291E00E9485010E94D801E0
:1002A0000E9465010E94790180E00E94810187EC33
:1002B00090E00E9483010E9475010E947D0141E04F
:1002C00067E082E00E943E00FFCF83B7886083BF73
:1002D00083B78F7B83BF83B7816083BF83B78D7FF5
:1002E00083BF83B7846083BF089589B7816089BF66
:1002F000089589B7826089BF089589B78E7F89BFC5
:10030000089582BF08958CBF0895909363008093F1
:10031000620008951F920F920FB60F9211242F932F
:100320003F934F935F936F937F938F939F93AF937D
:10033000BF93EF93FF93E0916200F0916300099502
:10034000FF91EF91BF91AF919F918F917F916F91AD
:100350005F914F913F912F910F900FBE0F901F9083
:1003600018951F920F920FB60F9211242F933F935F
:100370004F935F936F937F938F939F93AF93BF93AD
:10038000EF93FF93E0916400F09165000995FF9170
:10039000EF91BF91AF919F918F917F916F915F91FD
:1003A0004F913F912F910F900FBE0F901F90189576
:0C03B0008FB780688FBF0895F894FFCFCE
:00000001FF
