S00B00004144432E7372656351
S11300000C942A000C943C000C943C000C943C008E
S11300100C943C000C943C000C943C000C943C006C
S11300200C943C000C943C000C943C000C943C005C
S11300300C943C000C943C000C943C000C943C004C
S11300400C947A000C943C000C943C000C943C00FE
S11300500C943C0011241FBECFE5D8E0DEBFCDBF19
S113006020E0A0E6B0E001C01D92A736B207E1F798
S11300700E94E8010C943A020C94000086B1806856
S113008086B987B1806487B987B18F7787B986B11C
S1130090816086B986B1826086B986B1846086B98A
S11300A008954115510539F06115710531F0883015
S11300B030F420E005C021E003C021E001C021E0CC
S11300C090916000911114C091E09093600070933E
S11300D0660060936500509364004093630097B199
S11300E0982B97B996B1986096B996B1906496B9E1
S11300F0822F08951F920F920FB60F9211242F93FF
S11301003F934F935F936F937F938F939F93AF939B
S1130110BF93EF93FF93E0916500F091660084B183
S113012095B191838083E0916300F0916400099517
S113013010926000FF91EF91BF91AF919F918F91C9
S11301407F916F915F914F913F912F910F900FBECF
S11301500F901F9018958FB780688FBF08958430D3
S113016008F072C0683008F06FC04130A1F58130EA
S113017089F028F08230C9F0833011F108952AB350
S113018081E090E002C0880F991F6A95E2F7822B04
S11301908ABB089527B381E090E002C0880F991FBD
S11301A06A95E2F7822B87BB089524B381E090E03F
S11301B002C0880F991F6A95E2F7822B84BB0895C9
S11301C021B381E090E002C0880F991F6A95E2F79D
S11301D0822B81BB0895411137C0813091F028F002
S11301E08230D9F0833029F108952AB381E090E078
S11301F002C0880F991F6A95E2F7809582238ABB13
S1130200089527B381E090E002C0880F991F6A9592
S1130210E2F78095822387BB089524B381E090E0C0
S113022002C0880F991F6A95E2F78095822384BBE8
S1130230089521B381E090E002C0880F991F6A9568
S1130240E2F78095822381BB0895843008F072C060
S1130250683008F06FC04130A1F5813089F028F092
S11302608230C9F0833011F108952BB381E090E01E
S113027002C0880F991F6A95E2F7822B8BBB089501
S113028028B381E090E002C0880F991F6A95E2F7D5
S1130290822B88BB089525B381E090E002C0880FCB
S11302A0991F6A95E2F7822B85BB089522B381E0FA
S11302B090E002C0880F991F6A95E2F7822B82BBF7
S11302C00895411137C0813091F028F08230D9F07F
S11302D0833029F108952BB381E090E002C0880FA8
S11302E0991F6A95E2F7809582238BBB089528B302
S11302F081E090E002C0880F991F6A95E2F780952B
S1130300822388BB089525B381E090E002C0880F62
S1130310991F6A95E2F78095822385BB089522B3DD
S113032081E090E002C0880F991F6A95E2F78095FA
S1130330822382BB08952091610030916200A8E875
S1130340B3E10E942B02DC01CB01072E7AE0B695C3
S1130350A795979587957A95D1F7702D893E23E0D7
S1130360920780F441E062E082E00E94250140E0CF
S113037067E082E00E94250140E063E083E00E94A0
S113038025010895BC01695E7340683B7B4080F49D
S113039040E062E082E00E94250141E067E082E003
S11303A00E94250141E063E083E00E942501089555
S11303B041E062E082E00E94250140E067E082E0E3
S11303C00E94250141E063E083E00E942501089535
S11303D00E94AB000E943E0041E062E082E00E9485
S11303E0AF0041E067E082E00E94AF0041E063E0DB
S11303F083E00E94AF0041E060E082E00E94AF0031
S113040040E062E082E00E94250140E067E082E093
S11304100E94250140E063E083E00E94250140E062
S113042060E082E00E9425014BE951E061E670E062
S113043087E00E945100811106C040E060E082E044
S11304400E942501F1CF813079F741E060E082E03C
S11304500E942501E9CFA29FB001B39FC001A39FD1
S1130460700D811D1124911DB29F700D811D1124E9
S10B0470911D0895F894FFCFDB
S9030000FC
