S00C000052544F532E73726563D0
S11300000C942A000C943C000C943C000C943C008E
S11300100C943C000C943C000C943C000C943C006C
S11300200C943C000C943C000C943C000C94910007
S11300300C943C000C943C000C943C000C943C004C
S11300400C943C000C943C000C943C000C943C003C
S11300500C943C0011241FBECFE5D8E0DEBFCDBF19
S113006020E0A0E6B0E001C01D92A437B207E1F79A
S11300700E94C0000C94FD000C94000095B384E031
S1130080892785BB089585B3805885BB089592B3AD
S113009088E0892782BB08950F931F93CF93DF9342
S11300A0C0E0D0E020C08091600090916100FE012A
S11300B0EE0FFF1FEC0FFD1FEE0FFF1FEE59FF4F5A
S11300C06081718124813581620F731F0E94E90070
S11300D0892B41F48F010280F381E02D0995F80109
S11300E0158214822196C330D105ECF2DF91CF91B1
S11300F01F910F91089590E0FC01EE0FFF1FDF01A7
S1130100A80FB91FAA0FBB1FAE59BF4F11967C93FE
S11301106E9313965C934E931297FD01358324835B
S113012008951F920F920FB60F9211242F933F93AD
S11301304F935F936F937F938F939F93AF93BF93EB
S1130140EF93FF9386E082BF8091600090916100FD
S1130150019690936100809360000E944C00FF918F
S1130160EF91BF91AF919F918F917F916F915F912B
S11301704F913F912F910F900FBE0F901F901895A4
S11301808FEF84BB81BB86E082BF83E083BF89B7E6
S1130190816089BF8FB780688FBF20E030E04EE375
S11301A050E068EE73E080E00E947B0028EE33E0CC
S11301B043E450E060ED77E081E00E947B0020EDB5
S11301C037E047E450E068EB7BE082E00E947B008C
S11301D0FFCFAA1BBB1B51E107C0AA1FBB1FA61759
S11301E0B70710F0A61BB70B881F991F5A95A9F7DC
S11101F080959095BC01CD010895F894FFCF41
S9030000FC
